:100000000C9472000C9493000C9493000C94930045
:100010000C9493000C9493000C9493000C94930014
:100020000C9493000C9493000C9493000C94930004
:100030000C9493000C9493000C9493000C949300F4
:100040000C9493000C9493000C9493000C949300E4
:100050000C9493000C9493000C9493000C949300D4
:100060000C9493000C9493000C9493000C949300C4
:100070000C9493000C9493000C9493000C949300B4
:100080000C9493000C9493000C9493000C949300A4
:100090000C9493000C9493000C9493000C94930094
:1000A0000C9493000C9493000C9493000C94930084
:1000B0000C9493000C9493000C9493000C94930074
:1000C0000C9493000C9493000C9493000C94930064
:1000D0000C9493000C9493000C9493000C94930054
:1000E0000C94930011241FBECFEFD1E2DEBFCDBF31
:1000F00000E00CBF12E0A0E0B2E0E2E9F4E000E0D2
:100100000BBF02C007900D92A630B107D9F722E0CD
:10011000A6E0B2E001C01D92A730B207E1F70E944D
:10012000DA010C9447020C9400008FEF80BB80939F
:10013000070180EF84B981E090E09C01009001020A
:1001400002C0220F331F0A94E2F7209301010090AE
:10015000010202C0880F991F0A94E2F780930201FE
:10016000089561BB7093080117B818B821E030E01A
:10017000B9010090050202C0660F771F0A94E2F7EA
:10018000482F50E09A010090030202C0220F331F53
:100190000A94E2F7962F920F21E030E0882311F0C5
:1001A00020E030E00090020202C0220F331F0A94C8
:1001B000E2F7290F25B98FE39CE90197F1F700C019
:1001C000000086B1089561BB7093080121E030E022
:1001D000F9010090040202C0EE0FFF1F0A94E2F73B
:1001E000682F70E09B010090030202C0220F331FB2
:1001F0000A94E2F79E2F920F21E030E0882311F05D
:1002000020E030E00090020202C0220F331F0A9467
:10021000E2F7290F81E090E0BC010090050202C0E6
:10022000660F771F0A94E2F7620F65B93FEF37B99F
:1002300048B9EFE9FFE03197F1F700C0000025B9B8
:10024000EFE9FFE03197F1F700C0000000900502F0
:1002500002C0880F991F0A94E2F7280F25B917B832
:10026000089561BB70930801682F70E021E030E0D1
:10027000882311F020E030E081E090E0DC01009084
:10028000040202C0AA0FBB1F0A94E2F7FB01009010
:10029000030202C0EE0FFF1F0A94E2F75A2F5E0F0F
:1002A000F9010090020202C0EE0FFF1F0A94E2F76C
:1002B000E50FDC010090050202C0AA0FBB1F0A94E3
:1002C000E2F7AE0FA5B95FEF57B948B9AFE9BFE0A4
:1002D0001197F1F700C00000E5B9AFE9BFE0119751
:1002E000F1F700C00000DC010090050202C0AA0F77
:1002F000BB1F0A94E2F7EA0FE5B917B818B80090E7
:10030000050202C0880F991F0A94E2F700900302C9
:1003100002C0660F771F0A94E2F7680F009002028E
:1003200002C0220F331F0A94E2F7260F25B98FE38C
:100330009CE90197F1F700C0000096B181E04913F4
:1003400080E0089590E00090010202C0880F991F9C
:100350000A94E2F780930201089580E00E94A201CE
:1003600011BA1092080117B881E090E0AC0100903A
:10037000050202C0440F551F0A94E2F79C01009049
:10038000040202C0220F331F0A94E2F7420F9C01BD
:100390000090030202C0220F331F0A94E2F7240FD9
:1003A0000090020202C0880F991F0A94E2F7820FA0
:1003B00085B90895EF92FF920F931F93CF930E94F8
:1003C000950000E010E0EE24E394F12CC7010090CA
:1003D000000202C0880F991F0A94E2F70817190754
:1003E00008F04EC0212F2770C801892F99278695C4
:1003F000869586958130910581F030F082309105A7
:1004000091F00397C1F039C0A801552702C0559556
:1004100047952A95E2F7C42F0FC0C02F01C0CC0F1B
:100420002A95EAF709C0A70101C0440F2A95EAF707
:10043000C42FC02B01C0C0E04C2FB8018091060230
:100440000E943101811119C080E00E94A2012FEFAA
:1004500080E792E0215080409040E1F700C000002A
:1004600081E00E94A2012FEF80E792E021508040BE
:100470009040E1F700C00000DFCF0F5F1F4FA6CF15
:10048000CF911F910F91FF90EF900C94AD01F894D4
:02049000FFCF9C
:060492000F060405060739
:00000001FF
