:100000000C9472000C9493000C9493000C94930045
:100010000C9493000C9493000C9493000C94930014
:100020000C9493000C9493000C9493000C94930004
:100030000C9493000C9493000C9493000C949300F4
:100040000C9493000C9493000C9493000C949300E4
:100050000C9493000C9493000C9493000C949300D4
:100060000C9493000C9493000C9493000C949300C4
:100070000C9493000C9493000C9493000C949300B4
:100080000C9493000C9493000C9493000C949300A4
:100090000C9493000C9493000C9493000C94930094
:1000A0000C9493000C9493000C9493000C94930084
:1000B0000C9493000C9493000C9493000C94930074
:1000C0000C9493000C9493000C9493000C94930064
:1000D0000C9493000C9493000C9493000C94930054
:1000E0000C94930011241FBECFEFD1E2DEBFCDBF31
:1000F00000E00CBF12E0A0E0B2E0E4E1F5E000E0D7
:100100000BBF02C007900D92A631B107D9F722E0CC
:10011000A6E1B2E001C01D92A831B207E1F70E944A
:10012000DF010C9488020C940000982F842F9130EA
:10013000E9F038F0923009F456C0933009F468C001
:1001400091C0623049F0633061F0613009F08AC0DB
:1001500064E60E94540256C02AE0622F0E945402B4
:1001600001C06AE00E945402E92F4DC0613079F06D
:1001700028F06230D1F0633041F174C0942F991FA0
:100180009927991F9295990F990F907C6CC0082E12
:10019000000C990B97FF03C091958195910964E636
:1001A00070E00E946002FB012FC0082E000C990B2A
:1001B00097FF03C09195819591092AE030E0B9013C
:1001C0000E946002CB01B9010AC0082E000C990BF5
:1001D00097FF03C09195819591096AE070E00E94B4
:1001E0006002FC0111C0613031F038F0623041F042
:1001F000633039F037C094E736C09091010233C0C4
:1002000082958F70E82FF0E0EF5FFD4F90812BC05B
:10021000613079F028F06230A1F06330D1F022C073
:10022000942F991F9927991F9295907F46FF1BC085
:1002300017C045FF02C090E101C090E084FF13C0E9
:100240000FC043FF02C090E101C090E082FF0BC0ED
:1002500007C041FF02C090E101C090E080FF03C0F1
:10026000946001C090E0892F08958FEF80BB809348
:10027000070180EF84B981E090E09C0100901102B9
:1002800002C0220F331F0A94E2F72093010100906D
:10029000110202C0880F991F0A94E2F780930201AD
:1002A000089561BB7093080117B818B821E030E0D9
:1002B000B9010090150202C0660F771F0A94E2F799
:1002C000482F50E09A010090130202C0220F331F02
:1002D0000A94E2F7962F920F21E030E0882311F084
:1002E00020E030E00090120202C0220F331F0A9477
:1002F000E2F7290F25B92FEF81EE94E021508040DD
:100300009040E1F700C0000086B1089561BB709392
:10031000080121E030E0F9010090140202C0EE0F64
:10032000FF1F0A94E2F7682F70E09B010090130210
:1003300002C0220F331F0A94E2F79E2F920F21E092
:1003400030E0882311F020E030E00090120202C07B
:10035000220F331F0A94E2F7290F81E090E0BC01DD
:100360000090150202C0660F771F0A94E2F7620F31
:1003700065B93FEF37B948B9EFE9FFE03197F1F7D9
:1003800000C0000025B9EFE9FFE03197F1F700C0A8
:1003900000000090150202C0880F991F0A94E2F72E
:1003A000280F25B917B8089590E00090110202C0F7
:1003B000880F991F0A94E2F78093020108958F92A3
:1003C0009F92AF92BF92CF92DF92EF92FF920F93E4
:1003D0001F93CF93DF930E94350110E080910002BC
:1003E000181708F052C024E0129F50011124C0E0F9
:1003F000D0E09C2E6E01CA28DB28DC2CCC2400E047
:10040000402F692D812F0E949500882E4091170260
:1004100048277601E00EF11CB701809116020E9478
:100420008601B701809116020E94510121E030E05F
:10043000881611F020E030E08091170290E0281734
:10044000390719F00F5FE1F619C080E00E94D4016E
:100450002FEF80E792E0215080409040E1F700C00C
:10046000000081E00E94D4012FEF80E792E021504C
:1004700080409040E1F700C00000C2CF2196C43018
:10048000D10509F0B6CF1F5FA9CF80E090E0DF91E2
:10049000CF911F910F91FF90EF90DF90CF90BF9081
:1004A000AF909F908F900895991B79E004C0991F99
:1004B000961708F0961B881F7A95C9F780950895BE
:1004C00097FB072E16F4009407D077FD09D00E9401
:1004D000740207FC05D03EF4909581959F4F0895D6
:1004E000709561957F4F0895AA1BBB1B51E107C012
:1004F000AA1FBB1FA617B70710F0A61BB70B881FB4
:10050000991F5A95A9F780959095BC01CD01089542
:04051000F894FFCF8D
:10051400043F065B4F666D7D077F6F777C395E799C
:0605240071060405060744
:00000001FF
