:100000000C9472000C9493000C9493000C94930045
:100010000C9493000C9493000C9493000C94930014
:100020000C9493000C9493000C9493000C94930004
:100030000C9493000C9493000C9493000C949300F4
:100040000C9493000C9493000C9493000C949300E4
:100050000C9493000C9493000C9493000C949300D4
:100060000C9493000C9493000C9493000C949300C4
:100070000C9493000C9493000C9493000C949300B4
:100080000C9493000C9493000C9493000C949300A4
:100090000C9493000C9493000C9493000C94930094
:1000A0000C9493000C9493000C9493000C94930084
:1000B0000C9493000C9493000C9493000C94930074
:1000C0000C9493000C9493000C9493000C94930064
:1000D0000C9493000C9493000C9493000C94930054
:1000E0000C94930011241FBECFEFD1E2DEBFCDBF31
:1000F00000E00CBF12E0A0E0B2E0E0E9FDE000E0CB
:100100000BBF02C007900D92A630B107D9F722E0CD
:10011000A6E0B2E001C01D92A031B207E1F70E9453
:10012000A1040C94C6060C9400008FEF80BB809352
:10013000070180EF84B981E090E09C01009000020B
:1001400002C0220F331F0A94E2F7209301010090AE
:10015000000202C0880F991F0A94E2F780930201FF
:10016000089561BB7093080117B818B821E030E01A
:10017000B9010090040202C0660F771F0A94E2F7EB
:10018000482F50E09A010090020202C0220F331F54
:100190000A94E2F7962F920F21E030E0882311F0C5
:1001A00020E030E00090010202C0220F331F0A94C9
:1001B000E2F7290F25B98FE39CE90197F1F700C019
:1001C000000086B1089561BB7093080121E030E022
:1001D000F9010090030202C0EE0FFF1F0A94E2F73C
:1001E000682F70E09B010090020202C0220F331FB3
:1001F0000A94E2F79E2F920F21E030E0882311F05D
:1002000020E030E00090010202C0220F331F0A9468
:10021000E2F7290F81E090E0BC010090040202C0E7
:10022000660F771F0A94E2F7620F65B93FEF37B99F
:1002300048B9EFE9FFE03197F1F700C0000025B9B8
:10024000EFE9FFE03197F1F700C0000000900402F1
:1002500002C0880F991F0A94E2F7280F25B917B832
:10026000089561BB70930801682F70E021E030E0D1
:10027000882311F020E030E081E090E0DC01009084
:10028000030202C0AA0FBB1F0A94E2F7FB01009011
:10029000020202C0EE0FFF1F0A94E2F75A2F5E0F10
:1002A000F9010090010202C0EE0FFF1F0A94E2F76D
:1002B000E50FDC010090040202C0AA0FBB1F0A94E4
:1002C000E2F7AE0FA5B95FEF57B948B9AFE9BFE0A4
:1002D0001197F1F700C00000E5B9AFE9BFE0119751
:1002E000F1F700C00000DC010090040202C0AA0F78
:1002F000BB1F0A94E2F7EA0FE5B917B818B80090E7
:10030000040202C0880F991F0A94E2F700900202CB
:1003100002C0660F771F0A94E2F7680F009001028F
:1003200002C0220F331F0A94E2F7260F25B98FE38C
:100330009CE90197F1F700C0000096B181E04913F4
:1003400080E0089590E00090000202C0880F991F9D
:100350000A94E2F780930201089580E00E94A201CE
:1003600011BA1092080117B881E090E0AC0100903A
:10037000040202C0440F551F0A94E2F79C0100904A
:10038000030202C0220F331F0A94E2F7420F9C01BE
:100390000090020202C0220F331F0A94E2F7240FDA
:1003A0000090010202C0880F991F0A94E2F7820FA1
:1003B00085B90895A6E0B2E0ED91FC9111972081F6
:1003C00081E090E014960C9002C0880F991F0A9467
:1003D000E2F7822B80830895E6E0F2E025E230E048
:1003E0003183208324E230E03383228322E031E032
:1003F00036832583A1E0B1E0B087A78397E094839B
:1004000096E0918790E894B990E49C9380930701DB
:10041000089581110C94DA01E0910602F09107022F
:10042000208181E090E000900A0202C0880F991FAD
:100430000A94E2F78095822380830895E0910B026D
:10044000F0910C0230910F022081882341F081E06D
:1004500090E001C0880F3A95EAF7822B08C081E04E
:1004600090E001C0880F3A95EAF780958223808357
:1004700008959FEF90BB982F990F9A7A869585756E
:10048000890F81BB089510BA0895962F990F9A7A13
:1004900066956575690F882331F08FEF80930A01A7
:1004A00060930B0108958FEF87B968B90895882389
:1004B00019F010920A01089517B80895882329F0B9
:1004C00010920A019091090102C017B896B1892FC4
:1004D000880F8A7A96959575890F0895E8E0F1E07E
:1004E000908121E030E001C0220F8A95EAF7292BA4
:1004F00020830895E8E0F1E0908121E030E001C040
:10050000220F8A95EAF720952923208308954F9298
:100510005F926F927F928F929F92AF92BF92CF9293
:10052000DF92EF92FF92CF93DF93D82F7B0110BA27
:100530000E946E02B70180E090E00E94A2054B018C
:100540005C012BEA3AEA4AEA50E40E9459066B0140
:100550007C0120E030E040E85FE30E94FC0487FD7E
:100560006FC020E030E040E850E4C501B4010E94D3
:1005700059062B013C0120E03FEF4FE757E40E9472
:10058000540618160CF044C020E030E04AE754E46A
:10059000C501B4010E9401054B015C0120E030E07F
:1005A0004AE755E40E9459066B017C0120E030E0E7
:1005B00040E85FE30E94FC0487FD24C020E03FEF99
:1005C0004FE757E4C701B6010E9454061816ACF471
:1005D00020E030E040E251E4C501B4010E94590638
:1005E0000E94730520E931E06115710551F1C901DF
:1005F0000197F1F761507109F7CFC701B6010E9469
:10060000730502C061E070E0CB010197F1F719C0FA
:1006100020E030E04FE753E4C701B6010E945406E2
:10062000181644F4C301B2010E947305CB0101976F
:10063000F1F709C0C701B6010E947305C62F01C0BA
:10064000C1E0CA95F1F79FB1C92FCC0FCA7A969530
:100650009575C90F8D2F0E947A028C2FDF91CF9153
:10066000FF90EF90DF90CF90BF90AF909F908F90D2
:100670007F906F905F904F9008954F925F926F922E
:100680007F928F929F92AF92BF92CF92DF92EF9222
:10069000FF921F93CF93DF93CDB7DEB72A970FB6A4
:1006A000F894DEBF0FBECDBF182FF62E6A0180E092
:1006B0000E9409028FEF80BB812F0E946E029F2D46
:1006C000990F9A7A8F2D86958575F92EF80EF1BAC5
:1006D000B60180E090E00E94A2052B013C012BEACC
:1006E0003AEA4AEA50E40E9459066B017C0120E094
:1006F00030E040E850E4C301B2010E9459064B01CA
:100700005C0120E030E040E85FE3C701B6010E94F1
:10071000FC0487FD71C020E03FEF4FE757E4C501BF
:10072000B4010E94540618160CF04EC020E030E0D0
:100730004AE754E4C301B2010E9401056D837E8340
:100740008F83988720E030E04AE755E40E945906FD
:1007500069837A838B839C8320E030E040E85FE309
:100760000E94FC0487FD2AC020E03FEF4FE757E4DA
:1007700069817A818B819C810E9454061816BCF491
:1007800020E030E040E251E46D817E818F819885E8
:100790000E9459060E94730520E931E06115710538
:1007A00069F1C9010197F1F761507109F7CF6981CA
:1007B0007A818B819C810E94730502C061E070E0A8
:1007C000CB010197F1F71AC020E030E04FE753E486
:1007D000C701B6010E945406181644F4C501B401BD
:1007E0000E947305CB010197F1F70BC0C701B60159
:1007F0000E9473056A8702C081E08A878A858A958C
:10080000F1F70E94DA0120E030E040E85FE3C70141
:10081000B6010E94FC0487FD67C020E03FEF4FE770
:1008200057E4C501B4010E94540618160CF044C0E8
:1008300020E030E04AE754E4C301B2010E94010520
:100840004B015C0120E030E04AE755E40E94590684
:100850006B017C0120E030E040E85FE30E94FC0493
:1008600087FD24C020E03FEF4FE757E4C701B60102
:100870000E9454061816ACF420E030E040E251E447
:10088000C501B4010E9459060E94730520E931E0B8
:100890006115710559F1C9010197F1F761507109AD
:1008A000F7CFC701B6010E94730502C061E070E096
:1008B000CB010197F1F71AC020E030E04FE753E495
:1008C000C701B6010E945406181644F4C501B401CC
:1008D0000E947305CB010197F1F70BC0C701B60168
:1008E0000E947305698702C081E0898789858A959E
:1008F000F1F780E00E94090210BA812F2A960FB604
:10090000F894DEBF0FBECDBFDF91CF911F91FF9056
:10091000EF90DF90CF90BF90AF909F908F907F909F
:100920006F905F904F900C947A022091060130E016
:10093000A90102C0559547958A95E2F7CA018170D1
:1009400008950F931F93CF93DF9383E00E94EC01F0
:10095000D0E0C1E004EB6C2F80E00E9445026D2FD7
:1009600081E00E94450280E00E947A028FE39CE9C8
:100970000197F1F700C000001C2F1D0F60E177E226
:1009800081E00E9487021813FFCF1C1730F482E029
:100990000E949504811101C0FFCF80E00E946E0289
:1009A0008FE39CE90197F1F700C0000060E177E276
:1009B00081E00E9487029C2F9D1B9813FFCF8C2FF4
:1009C0008170C695882311F0C02702C0C13011F094
:1009D000DF5FC1CF80E00E947A0260E080E00E9489
:1009E000450260E081E00E94450280E090E0DF91F6
:1009F000CF911F910F9108950E94DF0508F481E0C7
:100A000008950E9415050C941A060E94130658F0CA
:100A10000E940C0640F029F45F3F29F00C94030675
:100A200051110C944E060C9409060E942B0668F393
:100A30009923B1F3552391F3951B550BBB27AA2797
:100A400062177307840738F09F5F5F4F220F331FD1
:100A5000441FAA1FA9F335D00E2E3AF0E0E832D099
:100A600091505040E695001CCAF72BD0FE2F29D09C
:100A7000660F771F881FBB1F261737074807AB076E
:100A8000B0E809F0BB0B802DBF01FF2793585F4FE3
:100A90003AF09E3F510578F00C9403060C944E06F4
:100AA0005F3FE4F3983ED4F3869577956795B795C5
:100AB000F7959F5FC9F7880F911D9695879597F9D0
:100AC0000895E1E0660F771F881FBB1F6217730749
:100AD0008407BA0720F0621B730B840BBA0BEE1F5E
:100AE00088F7E09508950E94330688F09F5798F0A4
:100AF000B92F9927B751B0F0E1F0660F771F881F23
:100B0000991F1AF0BA95C9F714C0B13091F00E943C
:100B10004D06B1E008950C944D06672F782F882775
:100B2000B85F39F0B93FCCF3869577956795B39563
:100B3000D9F73EF490958095709561957F4F8F4FD2
:100B40009F4F0895E89409C097FB3EF490958095D7
:100B5000709561957F4F8F4F9F4F9923A9F0F92F83
:100B600096E9BB279395F695879577956795B79501
:100B7000F111F8CFFAF4BB0F11F460FF1BC06F5FE7
:100B80007F4F8F4F9F4F16C0882311F096E911C0F9
:100B9000772321F09EE8872F762F05C0662371F01A
:100BA00096E8862F70E060E02AF09A95660F771F2E
:100BB000881FDAF7880F9695879597F90895990F0A
:100BC0000008550FAA0BE0E8FEEF16161706E80717
:100BD000F907C0F012161306E407F50798F0621B38
:100BE000730B840B950B39F40A2661F0232B242B0D
:100BF000252B21F408950A2609F4A140A6958FEF2C
:100C0000811D811D089597F99F6780E870E060E07D
:100C100008959FEF80EC089500240A941616170695
:100C200018060906089500240A94121613061406DD
:100C300005060895092E0394000C11F4882352F040
:100C4000BB0F40F4BF2B11F460FF04C06F5F7F4FF8
:100C50008F4F9F4F089557FD9058440F551F59F0DF
:100C60005F3F71F04795880F97FB991F61F09F3F99
:100C700079F087950895121613061406551FF2CFC2
:100C80004695F1DF08C0161617061806991FF1CF12
:100C900086957105610508940895E894BB27662739
:100CA0007727CB0197F908950E94DF0508F48FEFAD
:100CB00008950E946C060C941A060E940C0638F0E7
:100CC0000E94130620F0952311F00C9403060C9457
:100CD000090611240C944E060E942B0670F3959F72
:100CE000C1F3950F50E0551F629FF001729FBB2723
:100CF000F00DB11D639FAA27F00DB11DAA1F649FBF
:100D00006627B00DA11D661F829F2227B00DA11D71
:100D1000621F739FB00DA11D621F839FA00D611DF7
:100D2000221F749F3327A00D611D231F849F600D18
:100D3000211D822F762F6A2F11249F5750409AF041
:100D4000F1F088234AF0EE0FFF1FBB1F661F771FCD
:100D5000881F91505040A9F79E3F510580F00C9498
:100D600003060C944E065F3FE4F3983ED4F3869559
:100D700077956795B795F795E7959F5FC1F7FE2B38
:100D8000880F911D9695879597F90895F894FFCF50
:060D900006040506070041
:00000001FF
