:100000000C9472000C948B000C948B000C948B005D
:100010000C948B000C948B000C948B000C948B0034
:100020000C948B000C948B000C948B000C948B0024
:100030000C948B000C948B000C948B000C948B0014
:100040000C948B000C948B000C948B000C948B0004
:100050000C948B000C948B000C948B000C948B00F4
:100060000C948B000C948B000C948B000C948B00E4
:100070000C948B000C948B000C948B000C948B00D4
:100080000C948B000C948B000C948B000C948B00C4
:100090000C948B000C948B000C948B000C948B00B4
:1000A0000C948B000C948B000C948B000C948B00A4
:1000B0000C948B000C948B000C948B000C948B0094
:1000C0000C948B000C948B000C948B000C948B0084
:1000D0000C948B000C948B000C948B000C948B0074
:1000E0000C948B0011241FBECFEFD1E2DEBFCDBF39
:1000F00000E00CBF12E0A0E0B2E0EAEEF3E000E0C6
:100100000BBF02C007900D92A630B107D9F70E942D
:10011000D2010C94F3010C9400008FEF80BB80930C
:10012000070180EF84B981E090E09C01009000021B
:1001300002C0220F331F0A94E2F7209301010090BE
:10014000000202C0880F991F0A94E2F7809302010F
:10015000089561BB7093080117B818B821E030E02A
:10016000B9010090040202C0660F771F0A94E2F7FB
:10017000482F50E09A010090020202C0220F331F64
:100180000A94E2F7962F920F21E030E0882311F0D5
:1001900020E030E00090010202C0220F331F0A94D9
:1001A000E2F7290F25B98FE39CE90197F1F700C029
:1001B000000086B1089561BB7093080121E030E032
:1001C000F9010090030202C0EE0FFF1F0A94E2F74C
:1001D000682F70E09B010090020202C0220F331FC3
:1001E0000A94E2F79E2F920F21E030E0882311F06D
:1001F00020E030E00090010202C0220F331F0A9479
:10020000E2F7290F81E090E0BC010090040202C0F7
:10021000660F771F0A94E2F7620F65B93FEF37B9AF
:1002200048B9EFE9FFE03197F1F700C0000025B9C8
:10023000EFE9FFE03197F1F700C000000090040201
:1002400002C0880F991F0A94E2F7280F25B917B842
:10025000089561BB70930801682F70E021E030E0E1
:10026000882311F020E030E081E090E0DC01009094
:10027000030202C0AA0FBB1F0A94E2F7FB01009021
:10028000020202C0EE0FFF1F0A94E2F75A2F5E0F20
:10029000F9010090010202C0EE0FFF1F0A94E2F77D
:1002A000E50FDC010090040202C0AA0FBB1F0A94F4
:1002B000E2F7AE0FA5B95FEF57B948B9AFE9BFE0B4
:1002C0001197F1F700C00000E5B9AFE9BFE0119761
:1002D000F1F700C00000DC010090040202C0AA0F88
:1002E000BB1F0A94E2F7EA0FE5B917B818B80090F7
:1002F000040202C0880F991F0A94E2F700900202DC
:1003000002C0660F771F0A94E2F7680F009001029F
:1003100002C0220F331F0A94E2F7260F25B98FE39C
:100320009CE90197F1F700C0000096B181E0491304
:1003300080E0089590E00090000202C0880F991FAD
:100340000A94E2F780930201089580E00E949A01E6
:1003500011BA1092080117B881E090E0AC0100904A
:10036000040202C0440F551F0A94E2F79C0100905A
:10037000030202C0220F331F0A94E2F7420F9C01CE
:100380000090020202C0220F331F0A94E2F7240FEA
:100390000090010202C0880F991F0A94E2F7820FB1
:1003A00085B90895CF93DF930E948D00C0E0D0E21D
:1003B0004C2FBE0180E00E942901811101C0FFCFB6
:1003C0004C2F4095BE0180E00E942901811101C09F
:1003D000FFCF2196C11580E4D80751F780E090E067
:0A03E000DF91CF910895F894FFCF4C
:0603EA00060405060700F1
:00000001FF
